{"abi":[{"type":"constructor","inputs":[{"name":"_maxValueWei","type":"uint256","internalType":"uint256"}],"stateMutability":"nonpayable"},{"type":"function","name":"NATIVE_ETH","inputs":[],"outputs":[{"name":"","type":"address","internalType":"address"}],"stateMutability":"view"},{"type":"function","name":"allowedRouters","inputs":[{"name":"","type":"address","internalType":"address"}],"outputs":[{"name":"","type":"bool","internalType":"bool"}],"stateMutability":"view"},{"type":"function","name":"allowedTokens","inputs":[{"name":"","type":"address","internalType":"address"}],"outputs":[{"name":"","type":"bool","internalType":"bool"}],"stateMutability":"view"},{"type":"function","name":"maxValueWei","inputs":[],"outputs":[{"name":"","type":"uint256","internalType":"uint256"}],"stateMutability":"view"},{"type":"function","name":"owner","inputs":[],"outputs":[{"name":"","type":"address","internalType":"address"}],"stateMutability":"view"},{"type":"function","name":"setAllowedRouter","inputs":[{"name":"router","type":"address","internalType":"address"},{"name":"allowed","type":"bool","internalType":"bool"}],"outputs":[],"stateMutability":"nonpayable"},{"type":"function","name":"setAllowedToken","inputs":[{"name":"token","type":"address","internalType":"address"},{"name":"allowed","type":"bool","internalType":"bool"}],"outputs":[],"stateMutability":"nonpayable"},{"type":"function","name":"setMaxValue","inputs":[{"name":"_maxValueWei","type":"uint256","internalType":"uint256"}],"outputs":[],"stateMutability":"nonpayable"},{"type":"function","name":"validateSwap","inputs":[{"name":"sellToken","type":"address","internalType":"address"},{"name":"buyToken","type":"address","internalType":"address"},{"name":"router","type":"address","internalType":"address"},{"name":"ethEquivalentValue","type":"uint256","internalType":"uint256"}],"outputs":[],"stateMutability":"view"},{"type":"event","name":"MaxValueUpdated","inputs":[{"name":"oldValue","type":"uint256","indexed":false,"internalType":"uint256"},{"name":"newValue","type":"uint256","indexed":false,"internalType":"uint256"}],"anonymous":false},{"type":"event","name":"RouterAllowlistUpdated","inputs":[{"name":"router","type":"address","indexed":true,"internalType":"address"},{"name":"allowed","type":"bool","indexed":false,"internalType":"bool"}],"anonymous":false},{"type":"event","name":"TokenAllowlistUpdated","inputs":[{"name":"token","type":"address","indexed":true,"internalType":"address"},{"name":"allowed","type":"bool","indexed":false,"internalType":"bool"}],"anonymous":false}],"bytecode":{"object":"0x608060405234801561000f575f80fd5b5060405161063a38038061063a83398101604081905261002e91610047565b5f80546001600160a01b0319163317905560035561005e565b5f60208284031215610057575f80fd5b5051919050565b6105cf8061006b5f395ff3fe608060405234801561000f575f80fd5b5060043610610090575f3560e01c80638da5cb5b116100635780638da5cb5b146101075780639984f30d14610119578063a07045f91461012c578063c646aee214610143578063e744092e14610175575f80fd5b8063011e11671461009457806339a5b0cd146100cc578063708af86b146100e15780638aaa2284146100f4575b5f80fd5b6100af73eeeeeeeeeeeeeeeeeeeeeeeeeeeeeeeeeeeeeeee81565b6040516001600160a01b0390911681526020015b60405180910390f35b6100df6100da3660046104be565b610197565b005b6100df6100ef3660046104f7565b610228565b6100df6101023660046104be565b6103b5565b5f546100af906001600160a01b031681565b6100df61012736600461053f565b610435565b61013560035481565b6040519081526020016100c3565b610165610151366004610556565b60026020525f908152604090205460ff1681565b60405190151581526020016100c3565b610165610183366004610556565b60016020525f908152604090205460ff1681565b5f546001600160a01b031633146101c95760405162461bcd60e51b81526004016101c090610576565b60405180910390fd5b6001600160a01b0382165f81815260026020908152604091829020805460ff191685151590811790915591519182527f45c10d9ef89aef5e9ff4cc0f5cd4020b4fd814b606e3263e5d314016cfc5a55391015b60405180910390a25050565b6001600160a01b0384165f9081526001602052604090205460ff1661028f5760405162461bcd60e51b815260206004820152601c60248201527f522d30313a2073656c6c20746f6b656e206e6f7420616c6c6f7765640000000060448201526064016101c0565b6001600160a01b0383165f9081526001602052604090205460ff166102f65760405162461bcd60e51b815260206004820152601b60248201527f522d30313a2062757920746f6b656e206e6f7420616c6c6f776564000000000060448201526064016101c0565b6001600160a01b0382165f9081526002602052604090205460ff1661035d5760405162461bcd60e51b815260206004820152601860248201527f522d30323a20726f75746572206e6f7420616c6c6f776564000000000000000060448201526064016101c0565b6003548111156103af5760405162461bcd60e51b815260206004820152601760248201527f522d30343a2076616c756520657863656564732063617000000000000000000060448201526064016101c0565b50505050565b5f546001600160a01b031633146103de5760405162461bcd60e51b81526004016101c090610576565b6001600160a01b0382165f81815260016020908152604091829020805460ff191685151590811790915591519182527f1da521c13439ac6ab125c52e0da7dd7de929f09e58aa0f89ebe3dbb12e63a52b910161021c565b5f546001600160a01b0316331461045e5760405162461bcd60e51b81526004016101c090610576565b600380549082905560408051828152602081018490527f70fa390ef18c5b85fdf4ab5c2ddda266d6dd71eb4e960ac711559ec1c0a44484910160405180910390a15050565b80356001600160a01b03811681146104b9575f80fd5b919050565b5f80604083850312156104cf575f80fd5b6104d8836104a3565b9150602083013580151581146104ec575f80fd5b809150509250929050565b5f805f806080858703121561050a575f80fd5b610513856104a3565b9350610521602086016104a3565b925061052f604086016104a3565b9396929550929360600135925050565b5f6020828403121561054f575f80fd5b5035919050565b5f60208284031215610566575f80fd5b61056f826104a3565b9392505050565b6020808252600990820152683737ba1037bbb732b960b91b60408201526060019056fea2646970667358221220b9406fa235f97b7684b3eff209d98f9b3bd70147c31869d2ea5cba0b4d40f3be64736f6c63430008140033","linkReferences":{}},"methodIdentifiers":{"NATIVE_ETH()":"011e1167","allowedRouters(address)":"c646aee2","allowedTokens(address)":"e744092e","maxValueWei()":"a07045f9","owner()":"8da5cb5b","setAllowedRouter(address,bool)":"39a5b0cd","setAllowedToken(address,bool)":"8aaa2284","setMaxValue(uint256)":"9984f30d","validateSwap(address,address,address,uint256)":"708af86b"},"id":16}