{"abi":[{"type":"constructor","inputs":[{"name":"_maxValueWei","type":"uint256","internalType":"uint256"}],"stateMutability":"nonpayable"},{"type":"function","name":"NATIVE_ETH","inputs":[],"outputs":[{"name":"","type":"address","internalType":"address"}],"stateMutability":"view"},{"type":"function","name":"allowedRouters","inputs":[{"name":"","type":"address","internalType":"address"}],"outputs":[{"name":"","type":"bool","internalType":"bool"}],"stateMutability":"view"},{"type":"function","name":"allowedTokens","inputs":[{"name":"","type":"address","internalType":"address"}],"outputs":[{"name":"","type":"bool","internalType":"bool"}],"stateMutability":"view"},{"type":"function","name":"maxSlippageBps","inputs":[],"outputs":[{"name":"","type":"uint256","internalType":"uint256"}],"stateMutability":"view"},{"type":"function","name":"maxValueWei","inputs":[],"outputs":[{"name":"","type":"uint256","internalType":"uint256"}],"stateMutability":"view"},{"type":"function","name":"owner","inputs":[],"outputs":[{"name":"","type":"address","internalType":"address"}],"stateMutability":"view"},{"type":"function","name":"setAllowedRouter","inputs":[{"name":"router","type":"address","internalType":"address"},{"name":"allowed","type":"bool","internalType":"bool"}],"outputs":[],"stateMutability":"nonpayable"},{"type":"function","name":"setAllowedToken","inputs":[{"name":"token","type":"address","internalType":"address"},{"name":"allowed","type":"bool","internalType":"bool"}],"outputs":[],"stateMutability":"nonpayable"},{"type":"function","name":"setMaxSlippageBps","inputs":[{"name":"_maxSlippageBps","type":"uint256","internalType":"uint256"}],"outputs":[],"stateMutability":"nonpayable"},{"type":"function","name":"setMaxValue","inputs":[{"name":"_maxValueWei","type":"uint256","internalType":"uint256"}],"outputs":[],"stateMutability":"nonpayable"},{"type":"function","name":"validateSwap","inputs":[{"name":"sellToken","type":"address","internalType":"address"},{"name":"buyToken","type":"address","internalType":"address"},{"name":"router","type":"address","internalType":"address"},{"name":"ethEquivalentValue","type":"uint256","internalType":"uint256"},{"name":"realizedSlippageBps","type":"uint256","internalType":"uint256"}],"outputs":[],"stateMutability":"view"},{"type":"event","name":"MaxSlippageUpdated","inputs":[{"name":"oldValue","type":"uint256","indexed":false,"internalType":"uint256"},{"name":"newValue","type":"uint256","indexed":false,"internalType":"uint256"}],"anonymous":false},{"type":"event","name":"MaxValueUpdated","inputs":[{"name":"oldValue","type":"uint256","indexed":false,"internalType":"uint256"},{"name":"newValue","type":"uint256","indexed":false,"internalType":"uint256"}],"anonymous":false},{"type":"event","name":"RouterAllowlistUpdated","inputs":[{"name":"router","type":"address","indexed":true,"internalType":"address"},{"name":"allowed","type":"bool","indexed":false,"internalType":"bool"}],"anonymous":false},{"type":"event","name":"TokenAllowlistUpdated","inputs":[{"name":"token","type":"address","indexed":true,"internalType":"address"},{"name":"allowed","type":"bool","indexed":false,"internalType":"bool"}],"anonymous":false}],"bytecode":{"object":"0x608060405234801561000f575f80fd5b5060405161073538038061073583398101604081905261002e9161004d565b5f80546001600160a01b031916331790556003556103e8600455610064565b5f6020828403121561005d575f80fd5b5051919050565b6106c4806100715f395ff3fe608060405234801561000f575f80fd5b50600436106100a6575f3560e01c80639984f30d1161006e5780639984f30d1461012f578063a07045f914610142578063c4aa739514610159578063c646aee214610162578063e744092e14610194578063f7115636146101b6575f80fd5b8063011e1167146100aa57806325fc1b3d146100e257806339a5b0cd146100f75780638aaa22841461010a5780638da5cb5b1461011d575b5f80fd5b6100c573eeeeeeeeeeeeeeeeeeeeeeeeeeeeeeeeeeeeeeee81565b6040516001600160a01b0390911681526020015b60405180910390f35b6100f56100f036600461058f565b6101c9565b005b6100f56101053660046105c1565b610240565b6100f56101183660046105c1565b6102c8565b5f546100c5906001600160a01b031681565b6100f561013d36600461058f565b610348565b61014b60035481565b6040519081526020016100d9565b61014b60045481565b6101846101703660046105fa565b60026020525f908152604090205460ff1681565b60405190151581526020016100d9565b6101846101a23660046105fa565b60016020525f908152604090205460ff1681565b6100f56101c436600461061a565b6103af565b5f546001600160a01b031633146101fb5760405162461bcd60e51b81526004016101f29061066b565b60405180910390fd5b600480549082905560408051828152602081018490527ed0adba8f44b48a2e609f42b3a1c04404a6d5bf30c24d7501cc72dd2340695791015b60405180910390a15050565b5f546001600160a01b031633146102695760405162461bcd60e51b81526004016101f29061066b565b6001600160a01b0382165f81815260026020908152604091829020805460ff191685151590811790915591519182527f45c10d9ef89aef5e9ff4cc0f5cd4020b4fd814b606e3263e5d314016cfc5a55391015b60405180910390a25050565b5f546001600160a01b031633146102f15760405162461bcd60e51b81526004016101f29061066b565b6001600160a01b0382165f81815260016020908152604091829020805460ff191685151590811790915591519182527f1da521c13439ac6ab125c52e0da7dd7de929f09e58aa0f89ebe3dbb12e63a52b91016102bc565b5f546001600160a01b031633146103715760405162461bcd60e51b81526004016101f29061066b565b600380549082905560408051828152602081018490527f70fa390ef18c5b85fdf4ab5c2ddda266d6dd71eb4e960ac711559ec1c0a444849101610234565b6001600160a01b0385165f9081526001602052604090205460ff166104165760405162461bcd60e51b815260206004820152601c60248201527f522d30313a2073656c6c20746f6b656e206e6f7420616c6c6f7765640000000060448201526064016101f2565b6001600160a01b0384165f9081526001602052604090205460ff1661047d5760405162461bcd60e51b815260206004820152601b60248201527f522d30313a2062757920746f6b656e206e6f7420616c6c6f776564000000000060448201526064016101f2565b6001600160a01b0383165f9081526002602052604090205460ff166104e45760405162461bcd60e51b815260206004820152601860248201527f522d30323a20726f75746572206e6f7420616c6c6f776564000000000000000060448201526064016101f2565b6004548111156105365760405162461bcd60e51b815260206004820152601a60248201527f522d30333a20736c69707061676520657863656564732063617000000000000060448201526064016101f2565b6003548211156105885760405162461bcd60e51b815260206004820152601760248201527f522d30343a2076616c756520657863656564732063617000000000000000000060448201526064016101f2565b5050505050565b5f6020828403121561059f575f80fd5b5035919050565b80356001600160a01b03811681146105bc575f80fd5b919050565b5f80604083850312156105d2575f80fd5b6105db836105a6565b9150602083013580151581146105ef575f80fd5b809150509250929050565b5f6020828403121561060a575f80fd5b610613826105a6565b9392505050565b5f805f805f60a0868803121561062e575f80fd5b610637866105a6565b9450610645602087016105a6565b9350610653604087016105a6565b94979396509394606081013594506080013592915050565b6020808252600990820152683737ba1037bbb732b960b91b60408201526060019056fea2646970667358221220c7b7e7ebdd0c5160af2bb0e58a3e5c79291b37f4a09218e426c3d3106c370d0564736f6c63430008140033","linkReferences":{}},"methodIdentifiers":{"NATIVE_ETH()":"011e1167","allowedRouters(address)":"c646aee2","allowedTokens(address)":"e744092e","maxSlippageBps()":"c4aa7395","maxValueWei()":"a07045f9","owner()":"8da5cb5b","setAllowedRouter(address,bool)":"39a5b0cd","setAllowedToken(address,bool)":"8aaa2284","setMaxSlippageBps(uint256)":"25fc1b3d","setMaxValue(uint256)":"9984f30d","validateSwap(address,address,address,uint256,uint256)":"f7115636"},"id":16}